:020000040800F2
:100000008007002029020008B70D0008630D0008D2
:10001000B50D0008C5030008F90F00080000000036
:10002000000000000000000000000000BB0D000800
:10003000C703000800000000B90D0008510E0008B9
:10004000430200084302000843020008430200087C
:10005000430200084302000843020008430200086C
:10006000430200084302000843020008430200085C
:10007000430200084302000843020008430200084C
:10008000430200084302000843020008430200083C
:10009000430200084302000843020008430200082C
:1000A000430200084302000843020008430200081C
:1000B000430200084302000843020008430200080C
:1000C00043020008430200084302000843020008FC
:1000D00043020008CD0F0008430200084302000855
:1000E00043020008430200084302000843020008DC
:1000F00043020008430200084302000843020008CC
:1001000043020008430200084302000843020008BB
:1001100043020008430200084302000843020008AB
:10012000430200084302000843020008430200089B
:10013000430200084302000843020008430200088B
:10014000430200084302000843020008430200087B
:10015000430200084302000843020008430200086B
:10016000430200084302000843020008430200085B
:100170004302000843020008430200080000000098
:10018000430200084302000800F002F800F03CF8C7
:100190000AA090E8000C82448344AAF10107DA45E2
:1001A00001D100F031F8AFF2090EBAE80F0013F0F8
:1001B000010F18BFFB1A43F001031847440F00005A
:1001C000640F0000103A24BF78C878C1FAD85207EB
:1001D00024BF30C830C144BF04680C6070470000C1
:1001E0000023002400250026103A28BF78C1FBD840
:1001F000520728BF30C148BF0B6070471FB500F0E1
:1002000071FF1FBD10B510BD00F0AAF81146FFF731
:10021000F5FF00F035FF00F0C8F803B4FFF7F2FF78
:1002200003BC00F0FAFE0000094880470948004777
:10023000FEE7FEE7FEE7FEE7FEE7FEE7FEE7FEE796
:10024000FEE7FEE704480549054A064B70470000F3
:10025000550E000889010008800100208007002059
:100260008003002080030020704753EA020C00F056
:1002700069802DE9F04B4FF00006002B1FBFB3FA49
:1002800083F503FA05F424FA05F65E4012BF16431F
:10029000B2FA82F502FA05F4C5F120051EBF22FA72
:1002A00005FC44EA0C04203556EA044C4FEA144499
:1002B00018BF641C4FF000084FF00009904271EB2A
:1002C000030C39D3002919BFB1FA81F701FA07F6F7
:1002D000B0FA80F700FA07F6C7F120071EBF20FA30
:1002E00007FC46EA0C062037B6FBF4FCA7EB050733
:1002F000103F07F01F0BCBF120060CFA0BFB2CFA7A
:1003000006F644BFB3460026202FA4BF5E464FF03A
:10031000000B5BEA060C08BF4FF0010B19EB0B0951
:10032000ABFB027C48EB0608C01B06FB02CC0BFBB8
:1003300003CC71EB0C01C1E70B460246414648462F
:10034000BDE8F08B13B54FF000004FF00001AFF3A4
:100350000080BDE81C407047704770477047704789
:10036000754600F02BF8AE4605006946534620F06E
:100370000700854618B020B5FFF764FFBDE82040B0
:100380004FF000064FF000074FF000084FF0000B51
:1003900021F00701AC46ACE8C009ACE8C009ACE804
:1003A000C009ACE8C0098D46704710B50446AFF3EC
:1003B00000802046BDE81040FFF72FBF004870477F
:1003C00020010020FEE7704790F83510022903D085
:1003D0008021416501207047052180F835100068B3
:1003E000016821F001010160002070472DE9F84FFC
:1003F000DFF88C91002209F1040A0AF1040B4FF096
:100400000F080BF1040E01260B6896403340B342EF
:1004100071D14C68022C01D0122C11D1D40800EB00
:1004200084073D6A5407E40E08FA04FC25EA0C052B
:10043000D1F810C00CFA04FC4CEA050CC7F820C037
:1004400007685400032591F804C0A5400CF0030C84
:10045000AF430CFA04FC4CEA070CC0F800C04F682C
:10046000012F05D0022F03D0112F01D0122F11D14F
:100470008768D1F80CC0AF430CFA04FC4CEA070CB7
:10048000C0F808C04768B7430E79C6F30016964017
:100490003E434660C668AE438D68A5403543C5609F
:1004A0004C68E40065D5374C256845F480452560E7
:1004B000246822F0030504F480440094324C2E1981
:1004C000D6F808789407250F08FA05F4A7432F4CAF
:1004D000A04201D1002424E02D4CA04201D10124EE
:1004E0001FE02C4CA04201D102241AE02A4CA04269
:1004F00002D1032415E03CE0284CA04201D10424A1
:100500000FE0274CA04201D105240AE0254CA0426F
:1005100001D1062405E0244CA04201D1072400E0CB
:100520000824AC403C43C6F80848D9F800404D4682
:100530004E689C43F60300D51C432C60DAF800405B
:1005400055464E689C43B60300D51C432C60DBF82F
:1005500000405D464E689C43F60200D51C432C606B
:10056000DEF8004075464E689C43B60200D51C4339
:100570002C60521C102AFFF446AFBDE8F88F000033
:10058000003C01404438024000300140000002407D
:100590000004024000080240000C0240001002402B
:1005A0000014024000180240001C02400AB18161A0
:1005B00070470904FBE7000001480068000C704721
:1005C000002004E00148806870470000040000201B
:1005D000024881680278114481607047040000205D
:1005E000094810B5016841F400710160016841F4E7
:1005F00080610160052000F04BF80F2000F006F844
:1006000000F024F8002010BD003C024070B50D4DF4
:1006100004464FF47A712878B1FBF0F00A49096872
:10062000B1FBF0F000F0A4FA48B9102C07D2002278
:100630002146501E00F00CF800206C6070BD0120B7
:1006400070BD000004000020000000207047000082
:10065000F0B40E4B1B68C3F30223C3F10704042C50
:1006600000D904241D1D072D01D2002300E0DB1E4C
:10067000012606FA04F56D1E0D409D409E40761E33
:10068000164045EA0601F0BC00F0B7BC0CED00E0F6
:10069000064A00F0070110684FF6FF03184040EAD1
:1006A0000120034908431060704700000CED00E092
:1006B0000000FA052DE9F0470D46040065D0DFF88B
:1006C0001491D9F80000EFB200F00F00A84207D251
:1006D00089F80070D9F8000000F00F00A84254D14A
:1006E00020683D4E810712D5400703D5306840F49D
:1006F000E05030602078000703D5306840F4604057
:1007000030603068A16820F0F00008433060207845
:10071000C0072DD0304960680839012812D002285E
:1007200013D0032811D00968890700292DDA316810
:1007300021F0030101433160FFF744FF804641F29D
:10074000883A0EE009688903EFE709688901ECE758
:10075000FFF738FFA0EB0801514502D90320BDE89F
:10076000F0873068616800F00C00B0EB810FEFD1CA
:10077000D9F80010484601F00F01A94207D90770C7
:10078000006800F00F00A84201D00120E7E72078C0
:10079000400705D53068E16820F4E0500843306038
:1007A0002078000706D53068216920F4604040EACF
:1007B000C100306000F016F83168084AC1F3031137
:1007C000515CC840064908600F20FFF71FFF00205A
:1007D000C5E70000003C024008380240EE10000867
:1007E00000000020154810B5006810F00C011448F6
:1007F00013D0431004290FD008290ED10F4C241F09
:10080000216801F03F022168490207D52068C0F342
:100810008810A0FB030106E0184610BD2168C1F353
:100820008811A1FB00010023FFF71FFD2168C1F320
:100830000141491C4900B0FBF1F010BD08380240ED
:100840000024F4002DE9F84F040073D02078BD4D4A
:10085000C00748D0BB4808300168C1F381010129B5
:1008600008D00068C0F3810002280AD1281D006862
:10087000400206D52868800335D560680028E4D09A
:1008800031E06068B0F5803F10D0B0F5A02F286847
:1008900010D020F480302860286820F48020286060
:1008A0006068A0B1FFF78EFE06460CE0286840F4B1
:1008B0008030F4E740F480202860F7E7FFF782FEFD
:1008C000801B642872D828688003F7D50BE0FFF7F7
:1008D00079FE064604E0FFF775FE801B6428F1D818
:1008E00028688003F7D42078DFF85C9280074FF007
:1008F000000A3ED593480830016811F00C0F09D06A
:100900000068C0F3810002280BD18E48001D0068EA
:10091000400206D42868800715D5E068012809D16F
:1009200011E0E068B8B10120C9F80000FFF74AFE05
:10093000064605E003E1FFF745FE801B0228C1D80B
:1009400028688007F7D52868216920F0F80040EA78
:10095000C10028600DE0C9F800A0FFF733FE06468D
:1009600004E0FFF72FFE801B02281FD828688007AD
:10097000F7D42078000722D5724F74496069743724
:1009800070B101200860FFF71DFE064604E0FFF786
:1009900019FE801B022809D838688007F7D50EE0B9
:1009A000C1F800A0FFF70EFE064605E081E0FFF764
:1009B00009FE801B02287CD838688007F7D420788D
:1009C000400769D5DFF87CB14FF000080BF1400B10
:1009D000DBF80000C0000CD4DBF8001041F08051BF
:1009E000CBF80010DBF800004FF0010800F0805059
:1009F0000090574F3868C0050FD4386840F48070B5
:100A00003860FFF7DFFD064604E0FFF7DBFD801BE3
:100A100002284ED83868C005F7D54A4FA06870370D
:100A200001280FD00528386810D020F00100386068
:100A3000386820F004003860A068B0B1FFF7C2FD4C
:100A400006460EE0386840F00100F4E740F004008C
:100A50003860F7E7FFF7B6FD811B41F2883081422D
:100A600065D838688007F5D50DE0FFF7ABFD064681
:100A700006E0FFF7A7FD811B41F28830814256D87E
:100A800038688007F5D4B8F1000F05D0DBF8001006
:100A900021F08051CBF80010A069C8B32949083172
:100AA0000968C1F38101022949D00228504607D0C4
:100AB00000E03CE0C9F86000FFF784FD044639E03F
:100AC0004F46C9F86000FFF77DFD064604E0FFF7DA
:100AD00079FD801B02282AD828688001F7D4D4E940
:100AE00007010843A16A1B4A490802EB0141626AF7
:100AF00041EA8211084394F82C1040EA0161114840
:100B0000001D016001203866FFF75CFD044605E02A
:100B100013E0FFF757FD001B022808D82868800162
:100B2000F7D50AE0FFF74EFD001B022802D903208B
:100B3000BDE8F88F28688001F4D40020F8E7012090
:100B4000F6E700000038024000004742800E4742AE
:100B5000007000400000FFFF4FF0E021042808690A
:100B600003D020F004000861704740F00400FAE769
:100B700010B5401EB0F1807F01D3012010BD4FF0B1
:100B8000E02460610F21601700F037FA0020A061B7
:100B900007202061002010BD704710F8391F4078F1
:100BA0000843704770B5026804461068D1685369FD
:100BB00010F00F0F50D003F0010501F4907635438B
:100BC0005DD0C20705D0CA0503D5E26B42F0010231
:100BD000E263420705D5DA0703D0E26B42F0020276
:100BE000E263820705D5DA0703D0E26B42F0040224
:100BF000E263020705D5DA0703D0E26B42F0080290
:100C0000E263E26B002A33D0800604D5880602D561
:100C1000204600F05FF920684069E16BC0F3801066
:100C2000090700D428B3204600F046F9206841693E
:100C300049061AD5416921F040014161606BA0B1BC
:100C40001B490165606BFFF7BFFB002810D0606B8C
:100C5000016DBDE870400847830610D58B060ED5A0
:100C60002046BDE8704000F035B92046FFF794FFFC
:100C700070BD2046FFF790FF0020E06370BD0306C3
:100C800006D50B0604D52046BDE8704000F06DB9CE
:100C90004006F3D54806F1D5D168204621F0400141
:100CA000D160202184F8391000F05AF870BD00009E
:100CB000A90E000890F83A30202B22D1F9B1F2B1F8
:100CC00090F83830012B1CD081628285C2850021CA
:100CD000C163222280F83A2080F838100168CA687F
:100CE00042F48072CA6001684A6942F001024A61B6
:100CF0000068C16841F02001C160002070470120F8
:100D0000704702207047000030B5006811498842E2
:100D10000CD1114A5088010408D4114644040978C2
:100D20004FF0000306D50A2901D0538030BD40F4AE
:100D300000400DE00D2909D0C0F30D04074D401C03
:100D400080B229555080C728EFD830BD40F480408C
:100D5000508030BD00100140140000201800002019
:100D60007047FEE7114810B5016886B041F02001D8
:100D7000016000680E4C00F0200005904FF4C06048
:100D800000900120019002900320039069462046C4
:100D9000FFF72CFB012251022046FFF707FC01223E
:100DA00091022046FFF702FC06B010BD3038024029
:100DB00000140240FEE770477047704770B5214C41
:100DC00092B00025266846F080562660246804F01C
:100DD000805411941C4C266846F480462660246892
:100DE0000DF1240C04F48044119401240094240493
:100DF0000194022406948CE80D006605CDE9076194
:100E00006846FFF71FFD00B1FEE70CA90F2081E83F
:100E100031004FF4A0500F904FF4805010900521F6
:100E20000CA8FFF747FC00B1FEE7FFF7C5FB41F256
:100E30000101884204D10548016841F480710160D4
:100E400012B070BD4038024000700040003C0240CB
:100E5000FFF7BEBB1048016841F4700101600F4804
:100E6000016841F0010101600C4A00210832116063
:100E700002680B4B1A400260031D0A4A1A6002689E
:100E800022F48022026005480C30016002495806B5
:100E9000803908607047000088ED00E000380240AB
:100EA000FFFFF6FE1030002410B5806B0021C185D5
:100EB000C184FFF771FE10BD0168CA6822F4907208
:100EC000CA6001684A6922F001024A61202180F863
:100ED0003A10704710B590F83A10222901D002203C
:100EE00010BD8168B1F5805F11D0016900290168EA
:100EF0001FD0496801F07F03816A4A1C82620B702F
:100F0000C18D491E0904090CC18518D02BE0026966
:100F1000816A002A0268526805D0D2B20A80816ACA
:100F2000491C8162ECE7C2F308020A80816A891CCD
:100F3000F7E74A68816A4B1C83620A70E0E7016840
:100F4000CA6822F02002CA600168CA6822F480726E
:100F5000CA6001684A6922F001024A61202180F8D2
:100F60003A10FFF7D1FE002010BD90F8391021296A
:100F700001D0022070478168B1F5805F016A0BD013
:100F80004A1C0262026809785160C18C491E09043A
:100F9000090CC1840ED017E009880268C1F308016A
:100FA000516001690029016A02D0491C0162ECE725
:100FB000891CFBE70168CA6822F08002CA600068E9
:100FC000C16841F04001C1600020704710B5084879
:100FD000FFF7E8FD0648FFF7E0FD2028FAD10122DF
:100FE00004490348FFF766FE0028F8D110BD000051
:100FF000E000002014000020FEE70907090E002889
:1010000004DB00F1E02080F80014704700F00F00CE
:1010100000F1E02080F8141D7047704710B50446B9
:101020000420FFF799FD0148046010BD1000002066
:1010300070B5054600244FF47A7603E0304600F0A0
:1010400005F8641CAC42F9D370BD000070B54FF0D8
:10105000E02500216C69094AAB6912685043AA690E
:101060009A42FCD002D2A3EB020302E0A4EB0206F8
:101070003344194413468142F1D370BD100000205F
:10108000FFF7AEFA0723022208214FF4A870FFF7FA
:1010900095FEA820FFF7C2FFFFF764FE4FF400742F
:1010A0000F4D66004FF4FA77002221462846FFF7DD
:1010B0007DFA012231462846FFF778FA3846FFF7D5
:1010C000B7FF012221462846FFF770FA0022314679
:1010D0002846FFF76BFA3846FFF7AAFFE4E700005F
:1010E000001402404FF04070E1EE100A704700001B
:1010F00000000000000001020304060708090000C8
:10110000201100080000002018000000C4010008A1
:10111000381100081800002068070000E0010008EE
:101120000024F40001000000100000000000000096
:081130000000000000000000B7
:040000050800018965
:00000001FF
